:10080000000000000000005F000000070007001467
:100810007F147F14242A7F2A122313086462364926
:100820005522500005030000001C22410000412217
:100830001C0014083E081408083E08080050300048
:100840000008080808080060600000201008040282
:100850003E5149453E00427F400042615149462198
:1008600041454B311814127F1027454545393C4A04
:100870004949300171090503364949493606494954
:10088000291E0036360000005636000008142241AA
:100890000014141414140041221408020151090612
:1008A000324979413E7E1111117E7F494949363ED8
:1008B000414141227F4141221C7F494949417F09F1
:1008C0000909013E4149497A7F0808087F00417FB4
:1008D00041002040413F017F081422417F404040B9
:1008E000407F020C027F7F0408107F3E4141413E61
:1008F0007F090909063E4151215E7F0919294646B3
:100900004949493101017F01013F4040403F1F20DB
:1009100040201F3F4038403F6314081463070870AD
:1009200008076151494543007F4141000204081016
:10093000200041417F000402010204404040404049
:10094000000102040020545454787F48444438384D
:1009500044444420384444487F3854545418087E52
:100960000901020C5252523E7F0804047800447D73
:1009700040002040443D007F1028440000417F405B
:10098000007C041804787C08040478384444443813
:100990007C14141408081414187C7C0804040848F7
:1009A00054545420043F4440203C4040207C1C20B0
:1009B00040201C3C4030403C44281028440C5050FF
:1009C000503C4464544C44287C7E7C2800007F00CA
:1009D00000287C7E7C28100808100878464146785C
:1009E0000000110D1410001519101600001718152D
:0609F0000E13000E0D16AF
:0D128500024C0000014E03010C9601080010
:10122200E4FDFCC3ED9FEC9E5015E4FBFA0BBB0002
:0F123200010AEB64704A70F50DBD00010C80E4F9
:01124100228A
:0E1277008F90C2B2D2B0120000C2B0020000CE
:10119400E574FD3395E0FC90080075F005ED120B45
:1011A400B2EC75F005A42583F583E5822575F582F7
:0811B400E43583F583E493FFA9
:0E11BC008F90D2B2D2B0120000C2B00200007A
:1011FE00D2B3D2B47F147E001212227F3E12127727
:10120E007F401212777FB81212777FC01212777F4B
:04121E003F02127702
:0B0FCC007D007BFF7E007F0B120AC639
:100FD700E4F565D2B4C2B3E56544B8FF1212777F72
:100FE70040121277E4F566E4FF1211BC0566E56668
:100FF700C3944040F2C2B4D2B3E56544B8FF1212BD
:10100700777F40121277E4F566E4FF1211BC05669C
:10101700E566C3944040F20565E565C3940840B3AF
:0110270022A6
:040D3E008D738B74B2
:100D4200EF24B8F576E57375F040120AECAFF0D3F4
:100D5200EF648094BB5003020DE4E573648094C099
:100D620050028001C392B4C3E573648094C05003FF
:100D7200C38001D392B3AF76121277E57375F04058
:100D8200120AECAFF0EF4440FF121277E4F575E57A
:100D92007375F040120AECAFF0C374409FFFE57523
:100DA200C39F5007121194057580E4C3E5736480F4
:100DB20094C05003C38001D392B4C3E5736480949A
:100DC200C050028001C392B3AF761212777F4012F5
:100DD2001277E575C394055007121194057580F2D8
:100DE2008035C3E573648094C05006D2B4C2B38028
:100DF2000AC2B4D2B374C02573F573AF76121277F8
:100E0200E5734440FF121277E4F5751211940575EB
:0C0E1200E575C3940540F4E4FF1211BC28
:010E1E0022B1
:0811CA008F6E8B6F8A70897132
:1011D200E4F572AB6FAA70A971120B0E601D057156
:1011E200E5717002057014F9120B0EFBAD72AF6E51
:0B11F200120D3E74062572F57280D8C5
:0111FD0022CF
:100E1F00755917755A0E755B15755C16755D1075DE
:100E2F005E0CAE4CAF4D7C277D10120B277C007DE6
:100E3F000A120B27ED04F55FAE4CAF4D7C037DE836
:100E4F00120B277C007D0A120B27ED04F560AE4CC8
:100E5F00AF4D7C007D64120B277C007D0A120B279F
:100E6F00ED04F561AE4CAF4D7C007D0A120B277C73
:100E7F00007D0A120B27ED04F562AE4CAF4D7C00DE
:100E8F007D0A120B27ED04F563E4F564F5657566CD
:100E9F001975671275680F75690D756A17756B0C83
:100EAF00E54E04F56CE4F56DFB7A007959FF0211FC
:010EBF00CA68
:10107E00E4F508F54CF54D754E03FFE4FEEE600306
:10108E00BE08047D0B80027D00EF75F009A4240DCF
:10109E002EF8A6050EBE09E50FBF07DF750904750C
:1010AE000A06E50A75F009A4240D2509F8761AE456
:0F10BE00FFEF75F003A42451F8E4F60FBF03F21F
:0110CD002200
:100F4C00E50804F55AE5082407F55BE55AC3940156
:100F5C005003755A01E55BD394074003755B07E4B6
:100F6C00F559E55975F003A42451F8E670481210B0
:100F7C00CEC3E55B955AFDE49400CD2401CD34003D
:100F8C00FC120B7CE55A2DFF240DF8E670E0E559B8
:100F9C0075F003A4244FF8A607E55975F003A424B3
:100FAC0050F8E4F6E55975F003A42451F876017471
:0F0FBC000D2FF8761A220559E559C3940340A367
:010FCB002203
:10125F00785A7C007A0979E0120FCC7B007A0079FA
:08126F005A7F031211CA80FE30
:10102800E4F559E55975F003A42451F8E6603DE567
:101038005975F003A42450F8E6650A702FE5597530
:10104800F003A4244FF8E665097021154EE559759B
:10105800F003A42451F8E4F6E50A75F009A4240D78
:101068002509F8E4F6E54E700312125F0559E559B3
:05107800C3940340AE2B
:01107D002250
:100BBE0020B118E509C394075011E50A75F009A490
:100BCE00240D2509F8E4F60509801920B51CE50960
:100BDE00D394014015E50A75F009A4240D2509F8F2
:100BEE00E4F615097F32FE1212221210CE7C007D21
:080BFE0004120B7CED4C703C6D
:100C06001210CE7C007D03120B7CED14F558FF33D9
:100C160095E0FEAD08ED3395E0FCED2FFFEC3EFED2
:100C2600C3EF94FEEE6480947F4011D3EF9402EEFE
:0C0C3600648094805006E5582508F508FD
:100C42007F06E4FEEF75F009A424042EF8E6FDEF1A
:100C520075F009A4240D2EF8A6050EBE09E6DFE202
:100C6200E50804FEE5082407FDEEC394005002E403
:100C7200FEEDC3940940027D08E4FFEF6E6004EFCD
:100C8200B505047C0B800FEFD39E4008EF9D500406
:100C92007C0080027C00740D2FF8A6040FBF09DBD4
:100CA200E4FFEF75F003A42451F8E6604AEF75F013
:100CB20003A4244FF8E6FEEF75F003A42450F8E6EF
:100CC20075F009A4240D2EF8E4F6EF75F003A424C0
:100CD20050F806E6FEC39407EF75F0034008A4241B
:100CE20051F8E4F68011A4244FF8E6FDEE75F00900
:100CF200A4240D2DF8761A0FBF03A71210CE7C0084
:100D02007D0A120B7CED4C7003120F4CE50A75F054
:100D120009A4240D2509F8E6B40B0E154EE4F6E5F8
:100D22004E700312125F750904E50A75F009A424D6
:0C0D32000D2509F8761A121028020E1F79
:10115900E4F558E4F559E55975F006A42414FDC3DE
:1011690094805014E55875F009A4240D2559F8E622
:10117900FBE55804FF120D3E0559E559C394094092
:0A118900D50558E558C3940740C986
:011193002239
:1012420078587C007A0979EB120FCC7B007A00790E
:0D125200587F031211CA7FD07E07021222BE
:10111B001212421211FE120FD712107E120BBE12B8
:10112B001159AF0C7E00121222054DE54D700205D0
:10113B004CAE4CFF7C007D64120B27ED4C70DDE553
:0E114B000CD3943240D674FB250CF50C80CEEC
:03000000020EC02D
:0C0EC000787FE4F6D8FD75817A020F07F8
:1009F600E709F608DFFA8046E709F208DFFA803EE3
:100A060088828C83E709F0A3DFFA8032E309F608CF
:100A1600DFFA8078E309F208DFFA807088828C8337
:100A2600E309F0A3DFFA806489828A83E0A3F608EB
:100A3600DFFA805889828A83E0A3F208DFFA804CC5
:100A460080D280FA80C680D4806980F2803380109C
:100A560080A680EA809A80A880DA80E280CA803305
:100A660089828A83ECFAE493A3C8C582C8CCC5837D
:100A7600CCF0A3C8C582C8CCC583CCDFE9DEE7804D
:100A86000D89828A83E493A3F608DFF9ECFAA9F0CC
:100A9600EDFB2289828A83ECFAE0A3C8C582C8CC22
:100AA600C583CCF0A3C8C582C8CCC583CCDFEADE3B
:100AB600E880DB89828A83E493A3F208DFF980CC9D
:100AC60088F0EF60010E4E60C388F0ED2402B40496
:100AD6000050B9F582EB2402B4040050AF2323453D
:060AE6008223900A467312
:100AEC00C2D530F707B2D563F0FF05F030E70CB292
:100AFC00D5F4048463F0FF05F080018430D502F452
:020B0C000422C1
:100B0E00BB010689828A83E0225002E722BBFE02E5
:090B1E00E32289828A83E4932218
:100B2700BC000BBE0029EF8DF084FFADF022E4CCB2
:100B3700F875F008EF2FFFEE33FEEC33FCEE9DEC7B
:100B4700984005FCEE9DFE0FD5F0E9E4CEFD22EDC1
:100B5700F8F5F0EE8420D21CFEADF075F008EF2F0B
:100B6700FFED33FD4007985006D5F0F222C398FDFC
:050B77000FD5F0EA2299
:100B7C00C2D5EC30E709B2D5E4C39DFDE49CFCEE94
:100B8C0030E715B2D5E4C39FFFE49EFE120B27C3DA
:100B9C00E49DFDE49CFC8003120B2730D507C3E4D5
:060BAC009FFFE49EFE2203
:0C0BB200A42582F582E5F03583F583224E
:1010CE00AC77AD78AE79AF7A7810EC4D4E4F7004A8
:1010DE007CA57DA5C3EC13FCED13FDEE13FEEF1303
:1010EE00FF5010EC64CCFCED644CFDEE644EFEEF54
:1010FE0064CEFFD8DF8C778D788E798F7AEE547F21
:0D110E00FE228E778F7874A5F579F57A2290
:100ECC0002111BE493A3F8E493A34003F68001F210
:100EDC0008DFF48029E493A3F85407240CC8C33327
:100EEC00C4540F4420C8834004F456800146F6DFF6
:100EFC00E4800B0102040810204080901285E47EEF
:100F0C00019360BCA3FF543F30E509541FFEE493EA
:100F1C00A360010ECF54C025E060A840B8E493A3B1
:100F2C00FAE493A3F8E493A3C8C582C8CAC583CADC
:100F3C00F0A3C8C582C8CAC583CADFE9DEE780BE94
:01129200005B
:00000001FF
